:10000000A0530020296900008F2A020059690000CE
:10001000596900005969000059690000000000009A
:10002000000000000000000000000000CD6600009D
:1000300059690000000000008566000045180200B4
:10004000E96800000DA30100E9680000E96800000C
:10005000E9680000E9680000E9680000E96800005C
:10006000E9680000E9680000E9680000E96800004C
:10007000E9680000E9680000E9680000E96800003C
:10008000E9680000E9680000E9680000E96800002C
:10009000E9680000E9680000E9680000E96800001C
:1000A000E9680000E9680000E9680000E96800000C
:1000B000E9680000E9680000E9680000E9680000FC
:1000C000E9680000E9680000E9680000E9680000EC
:1000D000E9680000E9680000E9680000E9680000DC
:1000E000E9680000E9680000E9680000E9680000CC
:1000F000E9680000E9680000E9680000E9680000BC
:1001000001F0FF01102A2BDB10F0070F08D010F8C8
:10011000013B013A8B422DD010F0070F42B3F6D1CC
:10012000F0B441EA012141EA014122F007047FF0E5
:1001300000070023F0E80256083C85EA010586EA3C
:10014000010685FA47F5A3FA87F586FA47F6A5FA78
:1001500087F68EB9EED1F0BC01F0FF0102F0070284
:1001600032B110F8013B013A83EA010313B1F8D12F
:100170000020704701387047002D06BF3546033810
:10018000073815F0010F07D1013015F4807F02BF49
:10019000013015F4C03F0130F0BC0138704700BF9A
:1001A00080F0004002E000BF81F0004142001FBF2C
:1001B0005FEA410392EA030F7FEA226C7FEA236C35
:1001C0006AD04FEA1262D2EB1363C1BFD21841402A
:1001D00048404140B8BF5B42192B88BF704710F0C0
:1001E000004F40F4000020F07F4018BF404211F063
:1001F000004F41F4000121F07F4118BF494292EACB
:10020000030F3FD0A2F1010241FA03FC10EB0C00F6
:10021000C3F1200301FA03F100F0004302D5494283
:1002200060EB4000B0F5000F13D3B0F1807F06D330
:1002300040084FEA310102F10102FE2A51D2B1F128
:10024000004F40EBC25008BF20F0010040EA03001D
:100250007047490040EB0000013A28BFB0F5000F9D
:10026000EDD2B0FA80FCACF1080CB2EB0C0200FA53
:100270000CF0AABF00EBC25052421843BCBFD040A2
:100280001843704792F0000F81F4000106BF80F41C
:1002900000000132013BB5E74FEA41037FEA226CDF
:1002A00018BF7FEA236C21D092EA030F04D092F0AA
:1002B000000F08BF0846704790EA010F1CBF0020DE
:1002C000704712F07F4F04D1400028BF40F000403B
:1002D000704712F100723CBF00F50000704700F05B
:1002E000004343F0FE4040F4000070477FEA226282
:1002F00016BF08467FEA23630146420206BF5FEA53
:10030000412390EA010F40F4800070474FF0000352
:1003100004E000BF10F0004348BF40425FEA000C19
:1003200008BF704743F0964301464FF000001CE0C1
:1003300050EA010208BF70474FF000030AE000BF17
:1003400050EA010208BF704711F0004302D5404255
:1003500061EB41015FEA010C02BF844601460020C7
:1003600043F0B64308BFA3F18053A3F50003BCFAE2
:100370008CF2083AA3EBC25310DB01FA02FC63448F
:1003800000FA02FCC2F12002BCF1004F20FA02F296
:1003900043EB020008BF20F00100704702F1200289
:1003A00001FA02FCC2F1200250EA4C0021FA02F2EA
:1003B00043EB020008BF20EADC7070474FF0FF0CEF
:1003C0001CEAD0521EBF1CEAD15392EA0C0F93EAEA
:1003D0000C0F6FD01A4480EA010C400218BF5FEA8C
:1003E00041211ED04FF0006343EA501043EA5111FF
:1003F000A0FB01310CF00040B1F5000F3EBF4900F9
:1004000041EAD3715B0040EA010062F17F02FD2AFC
:100410001DD8B3F1004F40EBC25008BF20F00100DF
:10042000704790F0000F0CF0004C08BF49024CEAF6
:10043000502040EA51207F3AC2BFD2F1FF0340EA88
:10044000C250704740F400004FF00003013A5DDCF9
:1004500012F1190FDCBF00F000407047C2F100023A
:10046000410021FA02F1C2F1200200FA02FC5FEA27
:10047000310040F1000053EA4C0308BF20EADC7071
:10048000704792F0000F00F0004C02BF400010F4E3
:10049000000F013AF9D040EA0C0093F0000F01F090
:1004A000004C02BF490011F4000F013BF9D041EAB2
:1004B0000C018FE70CEAD15392EA0C0F18BF93EAB4
:1004C0000C0F0AD030F0004C18BF31F0004CD8D1DE
:1004D00080EA010000F00040704790F0000F17BF65
:1004E00090F0004F084691F0000F91F0004F14D0AB
:1004F00092EA0C0F01D142020FD193EA0C0F03D103
:100500004B0218BF084608D180EA010000F0004005
:1005100040F0FE4040F40000704740F0FE4040F4E0
:10052000400070474FF0FF0C1CEAD0521EBF1CEA7F
:10053000D15392EA0C0F93EA0C0F69D0A2EB03029D
:1005400080EA010C49024FEA402037D04FF0805337
:1005500043EA111143EA10130CF000408B4238BFFC
:100560005B0042F17D024FF4000C8B4224BF5B1A0A
:1005700040EA0C00B3EB510F24BFA3EB510340EA58
:100580005C00B3EB910F24BFA3EB910340EA9C0006
:10059000B3EBD10F24BFA3EBD10340EADC001B0176
:1005A00018BF5FEA1C1CE0D1FD2A3FF650AF8B421A
:1005B00040EBC25008BF20F0010070470CF0004C27
:1005C0004CEA50207F32C2BFD2F1FF0340EAC25052
:1005D000704740F400004FF00003013A37E792F013
:1005E000000F00F0004C02BF400010F4000F013A71
:1005F000F9D040EA0C0093F0000F01F0004C02BF6C
:10060000490011F4000F013BF9D041EA0C0195E7D4
:100610000CEAD15392EA0C0F08D142027FF47DAF6D
:1006200093EA0C0F7FF470AF084676E793EA0C0F5D
:1006300004D14B023FF44CAF08466EE730F0004C5B
:1006400018BF31F0004CCAD130F000427FF45CAFEB
:1006500031F000437FF43CAF5FE700BF4FF0FF3C59
:1006600006E000BF4FF0010C02E000BF4FF0010CAC
:100670004DF804CD4FEA40024FEA41037FEA226C75
:1006800018BF7FEA236C11D001B052EA530C18BF97
:1006900090EA010F58BFB2EB030088BFC81738BFFC
:1006A0006FEAE17018BF40F0010070477FEA226CEA
:1006B00002D15FEA402C05D17FEA236CE4D15FEAE6
:1006C000412CE1D05DF8040B704700BF844608461A
:1006D0006146FFE70FB5FFF7C9FF002848BF10F1DB
:1006E000000F0FBD4DF808EDFFF7F4FF0CBF012020
:1006F00000205DF808FB00BF4DF808EDFFF7EAFFAA
:1007000034BF012000205DF808FB00BF4DF808ED64
:10071000FFF7E0FF94BF012000205DF808FB00BF59
:100720004DF808EDFFF7D2FF94BF012000205DF8DF
:1007300008FB00BF4DF808EDFFF7C8FF34BF0120EC
:1007400000205DF808FB00BF53B94AB9002908BF73
:1007500000281CBF4FF0FF314FF0FF3000F074B99C
:10076000ADF1080C6DE904CE00F006F8DDF804E008
:10077000DDE9022304B070472DE9F047089E0D46DD
:1007800004468846002B4DD18A42944668D9B2FA75
:1007900082F252B101FA02F3C2F1200120FA01F112
:1007A0000CFA02FC41EA030894404FEA1C45210C74
:1007B000B8FBF5FE1FFA8CF705FB1E8341EA0343E5
:1007C0000EFB07F199420BD91CEB03030EF1FF302E
:1007D00080F01E81994240F21B81AEF1020E63440B
:1007E0005B1AA4B2B3FBF5F005FB103344EA0344F3
:1007F00000FB07F7A7420AD91CEB040400F1FF3302
:1008000080F00881A74240F2058164440238E41B6D
:1008100040EA0E4000211EB1D4400023C6E9004347
:10082000BDE8F0878B4208D9002E00F0EE80002151
:10083000C6E900050846BDE8F087B3FA83F1002950
:100840004AD1AB4202D3824200F2F980841A65EBAE
:10085000030301209846002EE2D0C6E90048DFE7F6
:1008600002B9FFDEB2FA82F2002A40F09180A1EBD9
:100870000C054FEA1C471FFA8CFE0121B5FBF7F36C
:1008800007FB1350250C45EA00450EFB03F0A84278
:1008900008D91CEB050503F1FF3802D2A84200F28B
:1008A000CB8043462D1AA4B2B5FBF7F007FB1055D9
:1008B00044EA05440EFB00FEA64508D91CEB0404DF
:1008C00000F1FF3502D2A64500F2BB802846A4EB1A
:1008D0000E0440EA03409EE7C1F120078B4022FA54
:1008E00007FC4CEA030C20FA07F405FA01F31C4359
:1008F000FD404FEA1C4900FA01F3B5FBF9F8200C62
:100900001FFA8CFE09FB185540EA054508FB0EF05E
:10091000A84202FA01F20BD91CEB050508F1FF3AD7
:1009200080F08880A84240F28580A8F102086544E2
:100930002D1AA4B2B5FBF9F009FB105544EA0545A0
:1009400000FB0EFEAE4508D91CEB050500F1FF3497
:100950006CD2AE456AD90238654440EA0840A0FB33
:100960000294A5EB0E05A542C846A64656D353D021
:100970005EB1B3EB080265EB0E0505FA07F722FA44
:1009800001F3CD401F43C6E900750021BDE8F087A3
:10099000C2F1200320FA03F10CFA02FC25FA03F35A
:1009A00095400D434FEA1C471FFA8CFEB3FBF7F14D
:1009B00007FB11302B0C43EA004301FB0EF0984279
:1009C00004FA02F408D91CEB030301F1FF382FD21B
:1009D00098422DD9023963441B1AADB2B3FBF7F02C
:1009E00007FB103345EA034500FB0EF3AB4208D981
:1009F0001CEB050500F1FF3816D2AB4214D90238C2
:100A00006544ED1A40EA014138E73146304607E7D0
:100A10008646E5E61846FAE64B45A9D2B9EB020848
:100A200064EB0C0E0138A3E74046EAE7204694E762
:100A30004146D1E7D0467BE7023B654432E70846B2
:100A400009E76444023842E7704700BF10F8012B01
:100A500011F8013B012A28BF9A42F7D0D01A7047FB
:100A6000034613F8012B002AFBD1181A01387047EE
:100A7000F0B5484DD5F82431996811F0010189B0DD
:100A800021D103AA40F6034007F080FB044600286A
:100A90007CD1039B9B681B7893B93F4A136005F197
:100AA0009803184622F0F6F8BFF35B8F00F00500BC
:100AB00053E8002F43E800010029F9D1BFF35B8F11
:100AC00003981CF0ABFF03AA002141F2030007F0DA
:100AD0005DFB0446002859D1039B304E9A68D2F83A
:100AE0000100D2F8051003C618461CF097FF2146F6
:100AF00003AA41F2010007F049FB0446002845D152
:100B0000039883685A7885F83820D9789A7842EA29
:100B100001226A871A7985F83920197ADA7942EA46
:100B20000122AA875A799B7942EA0323EB871CF0BA
:100B300075FF214603AA41F2020007F027FB044695
:100B400020BB039FBA68531C413218685968344669
:100B500003C4083393422646F7D195F86A303846E5
:100B600043F0060385F86A301CF058FF95F84430CE
:100B70005A061BD40A4B0B490B48C91AC9088901EC
:100B800041F0010120F084FA6FF01204204609B010
:100B9000F0BD00BF00000020E01B0020400000204E
:100BA00028680200186902005E97020003AA00216B
:100BB00042F2030007F0EAFA04460028E6D1039B5C
:100BC000A94E9A68D2F80100D2F8051003C618465B
:100BD0001CF024FF214603AA42F2020007F0D6FAD5
:100BE00004460028D2D1039B9B68B3F80120A5F8E6
:100BF000CC2091B229B1DA78114606F1280025F00F
:100C0000C3F803981CF00AFF95F8446016F020061C
:100C100000F0058195F864301B0712D503AA002166
:100C200042F21C0007F0B2FA04460028AED1039845
:100C30008368D3F80120D3F80530C5E92A231CF0D6
:100C4000EDFE95F8A0309F0629D5D5F824319B6894
:100C50009E0724D402A90DF1060007F011FB0446FB
:100C6000002893D1042142F2240007F027F9064618
:100C7000002800F0DB800421083024F006FCBDF8D9
:100C800006300380BDF8083043802246314642F2E8
:100C9000240007F07BFA044600287FF477AF95F82C
:100CA000A0305C0610D503AA002142F22A0007F00A
:100CB0006DFA044600287FF469AF039883685B7877
:100CC00085F8E8301CF0AAFE082142F2010007F086
:100CD000F5F80446002800F0A9800821084424F013
:100CE000D4FB95F8A01011F0400F024640F2022309
:100CF00008BF032388074CBF43F02C0043F00C00CF
:100D000095F8A1308F0648BF40F0400013F0090F5E
:100D100095F86A3018BF40F4006003F00603CE0770
:100D200048BF40F01000062B08BF40F4C0700021FF
:100D300022F01CF82146002242F2010007F026FAB8
:100D4000044600287FF422AF95F8443098061ED45C
:100D5000B5F8CC10D9B903AA41F2050007F016FA8C
:100D6000044600287FF412AFB5F8CC3063B9039B7A
:100D70009B685A78997842EA0122A5F8CC209A8893
:100D80003A48114625F000F803981CF047FE082168
:100D900040F6014007F092F80446002846D00821AA
:100DA000084424F072FB95F8A030D907024652D5CA
:100DB0002BA1D1E9000121F0D9FF2146002240F604
:100DC000014007F0E3F9044600287FF4DFAE014656
:100DD00002AA4FF6014007F0D9F9254E254BF61A25
:100DE000F608B60100284DD0234846F0020120F055
:100DF0004FF9EB79002B40F0B78008F089FBEB79D5
:100E0000002B40F0B18008F035FC0446002800F0CB
:100E1000A2801A4846F0010120F03AF9B6E6022114
:100E200040F66D4007F04AF8044610B96FF06804C8
:100E3000ACE60221083024F028FB01230370467041
:100E40002146324640F66D4007F0A0F904460028DE
:100E50003FF4E0AE9AE60A484FF00051ABE700BF1E
:100E60009088000200800020A0000020D000002018
:100E70001869020028680200829702005698020052
:100E800010880002029B3D489C68B4F80120032AA8
:100E900096BF3B493B4951F8221046F0030320F02E
:100EA00018F9B4F80110B4F80320022946F003033E
:100EB0002ED1032A2CD8344951F82210334820F07F
:100EC00008F962793248032A96BF32492D4951F810
:100ED0002210CDE90312A2790592B4F807200692F8
:100EE000D4F80920079246F00303052203A920F055
:100EF00025F902981CF092FD02AA00214FF602404B
:100F000007F044F9044628B1234846F002016EE791
:100F10001C49D3E70298214F8368B3F80130A7F842
:100F200089301CF07BFD97F889305B077FF561AF56
:100F300002AA21464FF6034007F028F918B11848D5
:100F400046F0020153E7029883685B7887F888309F
:100F50001CF064FD4DE7134807F0BCF9044618B1D6
:100F6000114846F0010157E709F03EFF044600280A
:100F70007FF40CAE08F014FA08E600BFA697020052
:100F8000246F020079900200E46E0200BF97020015
:100F9000D79702005C6F0200049802000000002056
:100FA0002D9802000100002075980200000000004A
:100FB0002DE9F04F8FB0002800F08F80B94C94F8E5
:100FC000D66016F0010636D194F82C8094F87C7027
:100FD00094F8290027232D2213FB082803FB074739
:100FE00000F00300FF2384F82A3018F055F894F835
:100FF000D600430704EB080907F17D0720D414F855
:1010000008003146C0F380100FF0BEFE0368C9F837
:1010100002308388A9F806300368C7F80230838855
:10102000FB8014F808305D0621D413F00E0F2BD18D
:10103000636A002B5FD00C2630460FB0BDE8F08FFE
:10104000C0F3C000324604F1D70118F031FAFF288E
:1010500084F82A004BD19348494618F063F8914828
:10106000394618F05FF814F808305D06DDD5062122
:1010700009F102000EF03EFA002800F0D58114F8C4
:10108000083013F00E0FD3D094F828300121C3F3A9
:1010900042030DF133008DF833300EF0B1FB002820
:1010A00000F05F8114F8082002F00F02022A00F01D
:1010B0000181012A00F0BA817B781033DB00002A1D
:1010C00000F0A781062A00F0C4814FF4DA734FF4D0
:1010D0001B71013803FB0011F8E0724B93F8D63016
:1010E000DA07A8D50FB0BDE8F04F13F0D9B83046F5
:1010F00018F0A2F8AFE712F0D1FC8246002800F009
:101100009E8112F0D7FC8346002800F09D8114F0E8
:10111000EDF80546002800F09481C06F4FF6FF738C
:10112000AB8505F11C03002800F0858105F17002F4
:1011300005F16C010B930EF0E9F9B5F8682095F80C
:101140004410C5F834A122F4EF6222F0070242F401
:10115000887242F00102A5F8682095F83D2002F05F
:101160003F0262F07F0285F83D2095F8E02022F0F2
:10117000030285F8E02095F82A2122F0030285F881
:101180002A21002262F3000185F84410464969666D
:101190004649C5F820114FF01B1129667F2185F8BB
:1011A000C5100621C5E9142285F83F206A866A63C6
:1011B000AA65A5F8CC20A5F8D020A5F8EC2085F8E4
:1011C000EE20C5F80421A5F80821A5F81C21C5F8D2
:1011D0002421A5F8282185F83321A5F8C810EA674D
:1011E00095F88210A5F8802021F01F0185F8821063
:1011F00095F85611A5F8542121F0070185F85611EC
:1012000095F87611A5F8742162F3041185F876112A
:1012100095F89E11A5F89C2162F3C301A5F8A821B9
:1012200085F89E1114F0B8FBA5F8DA0014F0BAFBAB
:101230001F49A5F8DC00D5F8AC010140C5F8AC1198
:1012400014F0B6FB95F8B01160F3020185F8B01107
:1012500014F0B4FB0B9B95F8B0116362C4E933AB97
:10126000030103F0700321F078010B4385F8B031DE
:1012700095F82030ED61002262F30003C5E9702289
:10128000C5E96E22C5E90522C5F8B42185F82030EC
:1012900019F07AFC00283FF4F7AE12F0BBFF0326EA
:1012A000CAE600BFCC26002048014801FF490100E2
:1012B0000000FFF699F801301033DB0000FB03F368
:1012C000411E03F5AA73642000FB013194F820301D
:1012D0006748E461002565F3000384F8203031237A
:1012E0002360A1FB000160A3D3E90023C4E90555F5
:1012F000C4E90155FFF728FAB4F8D470E0600FF0A4
:101300003DFD814647B914F8085005F00F05A5F1D9
:101310000105B5FA85F56D0994F8280065F300001C
:1013200010F0010584F8280022D0E368514ADFF864
:1013300048810493002002250DAF019305920321FB
:10134000CDE9020006944B4600900897CDF81C802A
:101350002A460D950FF004FC394612F035FC0028A2
:1013600043D0636A002B3FF466AE12F053FF62E68F
:10137000E368424A4248049303F24713A7FB000183
:10138000069402951360912303FB07113A4B0793D0
:10139000384B05934FF6FF7309924FF00208039301
:1013A0000DAF31A3D3E90023CDF834800897FFF7C0
:1013B000CBF94B46CDE900504246284603210FF0B9
:1013C00079FB394612F000FC0028CAD194F8D630D7
:1013D00043F0010384F8D63013F012FB00287FF4A9
:1013E0002BAE012017F036FE26E6264A05924AF279
:1013F000D8320092CDE90300CDE90100CDF81C8080
:10140000089706944B46012203210D950FF0A8FB87
:10141000D7E799F80110103103EBC103CA0003F5B7
:101420004D7102F59A7354E6122605E64FF4F273F5
:101430004FF47F714DE605F17400E86776E6072604
:10144000FAE5584612F03CFB504612F02DFB0726F9
:10145000F2E599F80120103203EBC203D20003F544
:101460004D7102F59A7334E68D49FD1A07000000AC
:1014700000CA9A3B553F0100BD3B0100AC2700204C
:10148000002AE784D13E010038B5194C9DF810C000
:1014900094F848E01EF0010521D14FEACC0C0CF085
:1014A000180C4CEAC01C94F83200A4F8421000F06A
:1014B00067004CEA000C0F4884F832C063F3420E18
:1014C000A2FB0001912303FB021107A3D3E9002330
:1014D00084F848E0FFF738F96064284638BD0C25E9
:1014E000284638BDAFF300808D49FD1A0700000083
:1014F000D0270020002AE78410B59DF808C04FEAE5
:10150000CC0C0CF0180C4CEAC11C817D04460C4834
:10151000E28401F067014CEA010C9122A3FB000177
:1015200002FB031184F816C003A3D3E90023FFF7DD
:101530000BF9A06210BD00BF8D49FD1A0700000025
:10154000002AE784000000002DE9F04790F83230CF
:10155000044600F1350190F8480003F0F903C0F3A8
:10156000400060F386138CB084F832300FF00CFC2E
:1015700094F82020B4F842304D48E461002565F32A
:101580000002A3FB000184F82020912202FB03113A
:10159000C4E9055544A3D3E90023FFF7D5F8312367
:1015A000C4E90035636CA5600933A0F131029342B0
:1015B00032BFE360E260656406460FF0DFFB636AFA
:1015C00007460DF12C08002B4FD03A4D3A4BCDF881
:1015D00020804FF00209651B069425FA09F5A3FB4C
:1015E00005353348B4F84230CDF82C904FF0000A5E
:1015F000A3FB00019122CDF80CA002FB0311E368CC
:1016000004932E4B07932E4B059327A3D3E9002376
:10161000FFF79AF8104619464FF47A720023FFF745
:1016200093F86D080435EDB22A46CDE901603B46DA
:101630000321CDF800A050460FF092FA414612F077
:10164000C3FA054668B994F8483043F0010384F8BA
:10165000483012F09BFF0446F8B128460CB0BDE8B4
:10166000F0870C200CB0BDE8F087CDE90A33E168C3
:1016700043460AAA032002F01BFB0B990029A4D0C1
:10168000104809A3D3E90023A1FB0001FFF75CF890
:101690000A9F20F07F40074497E7484617F0DAFC9E
:1016A00020460CB0BDE8F0878D49FD1A0700000008
:1016B000002AE784D0270020BD86F21ABD3B010036
:1016C0005947010000CA9A3B2DE9F04F0446808D2E
:1016D0004FF6FF7398428DB00D46164600F0E2813A
:1016E00094F8ED3094F8EC00834275D0C01A00F005
:1016F0000300022809D094F8312194F830319A423D
:101700001ED100200DB0BDE8F08F94F89D2194F813
:101710009C319A4206D094F89E3103F00603042BC4
:1017200000F0E88394F8EE707B1E052B00F29083A6
:10173000DFE813F06A006503E6028E03A902F201F6
:1017400024480DF091FE58B394F8303184F83131CB
:1017500003790222427143F003030371C271D4F88A
:10176000B43194F83221027233B394F856219107C0
:1017700022D494F8AF21D2071ED4D4F8C0219342CA
:1017800004BF1A68C4F8C021D4F8B821CAB91A68CD
:10179000026018600368C4E96E000BB9C4F8C401A4
:1017A000B4F8D0000028ACD1B4F8CA30012B40F214
:1017B0008781A4F8D030A4E7D4F8B821002A00F03B
:1017C0008581D4F8BC311A68026018600368C4F8D7
:1017D000BC01E2E7782A002094F8562112F00108B3
:1017E00089D194F809C194F80811614500F03E834D
:1017F0000122981E84F8EE2094F89D3194F89C21E3
:1018000084F8ED009A4286D1B5490B68002B00F0B0
:101810006285638EE78E1F4494F80A31374413F0D3
:101820000303BFB240F04884B4F8F080A7EB08028D
:101830001FFA82FB12043FF55EAF94F8740194F82E
:10184000752194F808C184F809C1824294F8ECC06B
:1018500084F8EDC009D094F8762102F00702052A39
:1018600004BF84F87501A4F8D0300B68D4F8049153
:101870009C4204BF00230B60B9F1000F00F04B85C0
:10188000D9F80000002800F04685B4F80C31E28D4C
:101890004168C4F804119342B4F80E1100F07F8639
:1018A000B4F810C1A28DA9F81E300C2389F80430B9
:1018B0000023A9F80620A9F82010A9F822C089F869
:1018C0001C30494612F002F912F00AF92368002B85
:1018D00009DAD4E9012123F0004391422CBF6D18AD
:1018E000AD182360ED1AE38DB4F80C9113FB0BF3E4
:1018F0009BB2B3FBF9F119FB01F292B293421FFACA
:1019000081FA80F0F684D31A764840F2E24202FB74
:1019100003F3A3FB000170A3D3E90023FEF714FF38
:1019200020F07F400544638EA8EB07071E4494F91E
:101930003D305744374440F2E248002B678608FBAD
:1019400009F7C0F26D86D4F81411664862A3D3E992
:101950000023A1FB0001FEF7F7FE20F07F483E4682
:1019600008F10108604AB4F81031B4F80E115F486C
:10197000A4F82E903A44B2FBF7F2A4F8CE2042F23B
:10198000107202FB03733844013BB0FBF7F0B3FB6A
:10199000F7F783B2881D83422186A4F8CA70A4F8A1
:1019A000D63002DD5B1A063B9BB2A4F8D23094F825
:1019B0000A315B0744BF0023A4F8CC300221012088
:1019C0001BF062FD00220221824601200DF0EEFD97
:1019D00047494FF4E67220460DF078FD471DFFB2EF
:1019E000444B00943A46012100200FF027F930F0D3
:1019F00002030CD0404A4149414840F653131EF0BF
:101A0000EEFF404080F311884FF0030002DF3548BD
:101A1000A6FB006B30A3D3E9002330465946FEF7FE
:101A200093FE20F07F4937480723A9FB0001301AB5
:101A300003FB09116BEB01014FF47A720023FEF7EF
:101A400083FECDE90190CDF8008008940694E1680A
:101A50002D482B4694F93D5004912C4911EA25015B
:101A600038BF014605910020294907913A46039065
:101A700001210FF075F830F002030CD01E4A1F4907
:101A80001F4840F66D131EF0AAFF404080F31188F6
:101A90004FF0030002DFBAF1000F40F09C856FF0B9
:101AA0008B002FE6144A1B49154840F2F3231EF021
:101AB00096FF404080F311884FF0030002DF0FE6ED
:101AC0000133A4F8D0300DB0BDE8F08F0360C4E955
:101AD0006D00C4F8BC0160E68D49FD1A07000000E6
:101AE000FC29002000CA9A3BFF5962027FC3C9014A
:101AF00030280020E14D0100F0770200E478020078
:101B0000C07202008D49FD1AB57F0100397E0100C7
:101B1000894D01006C790200E38E628E94F8F050DA
:101B200013441E44EF07B6B2AB4600F17783B4F816
:101B3000F220B61A37043FF5DEAD94F8EC2084F8B5
:101B4000ED2094F8E02094F8689094F869A0B4F837
:101B50006670B4F8DC80D4F82011D60709F00709C4
:101B60000AF0070A40F14085080540F13D85B8F5C7
:101B7000296F28BF4FF42968B8F5A47F4FF4296373
:101B800038BF4FF4A4780B9315F01C0F40F0FA8582
:101B9000B4F8646015F0E00F0CD094F8692094F864
:101BA0006200690961F3020284F869200B9A12F05D
:101BB000B1FF074694F8B02194F86810D4F80451A6
:101BC000C2F3C00262F3C30184F86810002D00F074
:101BD0000D862868002800F00986426894F868306D
:101BE000C4F8042194F869201BF0020F03F00703E6
:101BF00002F0070202D1994500F0AA87A18D6B7708
:101C000010232B710023E980AA772B77294611F046
:101C10005DFFD4F80451002D00F0FA8528680028F3
:101C200000F0F685B4F864304268C4F80421B34289
:101C300009D3434507D8B4F86630BB4203D30B9AA7
:101C4000934241F22A81A4F86460A4F866702B7F65
:101C5000A28DEA804FF0020C43F00303092185F8BE
:101C600004C069772B77B4F862302B84B4F8603005
:101C7000AB8415232946EB776F84EE8411F026FFA1
:101C800011F02EFF37E5B4480DF0EEFB00283FF4CD
:101C900032AD94F8EC3084F8ED30012302794371D1
:101CA000D4F8B43142F0030212210271C171002B49
:101CB00000F0148394F85621910700F10F8394F8F3
:101CC000AF21D20700F10A83D4F8C021934204BFA8
:101CD0001A68C4F8C021D4F8B821002A01F04C8059
:101CE000D4F8BC311A68026018600368C4F8BC01FB
:101CF000002B00F03885B4F8CE30A4F8D030FAE4E8
:101D000094F8F02012F0030500F07B8194F93D3047
:101D1000002BBFF6F0AC012D7FF4EDAC8E480DF03A
:101D2000A3FB074600283FF4E6AC037943F0030326
:101D3000037104230D22C61800F108054271C37116
:101D40000C21284618F002FD7368FA68C4F8FE20DA
:101D5000C4F8FA30D4F8B4313A69C4F8A020002BA2
:101D600000F0EC8594F85621920700F1E78594F88D
:101D7000AF21D60700F1E285D4F8C021934204BF19
:101D80001A68C4F8C021D4F8B821002A01F0E8800C
:101D9000D4F8BC311A683A601F603B68C4F8BC7163
:101DA000002B00F0E58711F0BFFE014600283FF44C
:101DB000A2AC0B7FA28DCA8043F003030B770225F0
:101DC000172203230D714A77CB77D4F85931D4F811
:101DD0005D214A620B6294F8573181F8283094F8FB
:101DE000583181F82930086811F070FE11F078FE42
:101DF00094F8F03065F3010384F8F0307BE4E38E6F
:101E0000618E94F8F0200B441E44D707B6B200F15F
:101E1000AB80B4F8F630F61A31043FF56CAC04F13F
:101E2000380094F8EC10D4F8F12094F8F53084F8E8
:101E3000ED10A263052103710DF0E2FC94F83D3032
:101E4000012260F3050384F83D3084F8C82152E490
:101E5000424A4349434840F279331EF0C0FD4040B6
:101E600080F311884FF0030002DF44E494F81D1161
:101E700094F81C71B94241D194F8291194F8287151
:101E8000B94200F05982C91BCF077FF534AC94F8F2
:101E90002A31D80740F19D869B0740F1958611F0C5
:101EA00043FE014600B394F8283184F82931A38D0C
:101EB000C38002230371037F43F0030303770623E8
:101EC00043770C23C37794F82B3180F82030B4F893
:101ED0002C31A0F82130B4F82E31A0F82330086856
:101EE00011F0F4FD11F0FCFD94F8EC0094F8ED30E5
:101EF000FFF7FCBB204613F0F9F813E4C91BC80731
:101F00007FF5F9AB94F8E03013F0010700F0D583CA
:101F100011F00AFE01460028E6D094F81C3184F83E
:101F20001D31A28DCA8009230220C1F820800A7FBA
:101F30000871C1F824804B77CB77D4F8243181F82D
:101F4000203042F003020A77C3F307221B0C81F80A
:101F5000212081F82230C2E7782A0020F0770200A1
:101F600058730200C0720200A6480DF07DFA0028E6
:101F70003FF4C1AB238E94F8F01002791E44B31DD8
:101F800042F003026FF30001A4F8F63084F8F01079
:101F90000123027108224271C371D4F8F1308360C9
:101FA00094F8F5300373D4F8B431B4F8F620A0F8FF
:101FB0000D20002B00F01E8394F85621960700F1A7
:101FC000198394F8AF21D50700F11483D4F8C02108
:101FD000934204BF1A68C4F8C021D4F8B821002A7B
:101FE00000F04B87D4F8BC311A68026018600368AF
:101FF000C4F8BC01002B7FF47EABC4F8C401FFF72A
:102000007ABB80480DF030FA064600283FF473ABE7
:1020100094F93D30002B00F1040880F20B8494F811
:102020008230190700F11D8694F8F150002D00F060
:102030009C84037943F00303037194F8E030DA07DA
:1020400040F15486D4F820315B0740F14F861123CC
:10205000C3710323037245727771D4F8B43100223F
:1020600084F8F120002B00F0D38494F856219007D7
:1020700000F1CE8494F8AF21D10700F1C984D4F8DF
:10208000C021934204BF1A68C4F8C021D4F8B82113
:10209000002A00F07D87D4F8BC311A6832601E60D7
:1020A000C4F8BC613368002B00F0448494F8EC3031
:1020B00084F8ED30FFF71FBB012011F017FD8046BB
:1020C00000283FF418AB4F480DF0CEF90646002823
:1020D0003FF411AB11F028FDD8F80030D4F80421FA
:1020E0005A6094F80A31C4F8048103F00303012B09
:1020F00000F0A784022B00F09B83434A43494448E5
:1021000040F67E031EF06BFC404080F311884FF0D8
:10211000030002DF0020238E94F80A213D493B444E
:102120006FF30102063384F80A219BB20C22A4F853
:10213000F0307271327942F003023271D4F8142116
:10214000A1FB02120021F171920A216894F8187122
:10215000A6F80920B4F80C21A6F80B20B4F80E213B
:10216000A6F80D200029B4F810213772A6F80F2028
:10217000A6F81130C4F8F8500ADA21F00043D4E987
:10218000012191422CBF6D18AD18EB1AC4F8F8303C
:10219000214B06F109010122C3E90240C4F8F41001
:1021A000104602210DF034FA002840F04D84D4F896
:1021B000B431002B00F0298294F85621900700F1E9
:1021C000248294F8AF21D10700F11F82D4F8C021F6
:1021D000934204BF1A68C4F8C021D4F8B821002A79
:1021E00000F04386D4F8BC311A6832601E60336850
:1021F000C4F8BC61002B7FF47EAAC4F8C461FFF769
:102200007ABA00BF782A0020F077020058730200E3
:10221000C07202005917B7D158050020022011F0F2
:1022200065FC804600283FF466AA8D480DF01CF935
:10223000054600283FF45FAA94F8F0306FF30003DE
:10224000C3F3421747EA930717F0070784F8F03003
:10225000DBB240F09A8494F8EC20A4F8F27098076E
:1022600084F8ED2000F148853B463A466B72052321
:102270002F726A816B711822D4F8B431EA712A790D
:1022800042F003022A71002B00F0718294F856216B
:10229000910700F16C8294F8AF21D20700F16782B8
:1022A000D4F8C021934204BF1A68C4F8C021D4F8FE
:1022B000B821002A00F0E985D4F8BC311A682A60F8
:1022C0001D602B68C4F8BC51002B7FF414AAC4F81D
:1022D000C451FFF710BA0C60FFF79BBAD4F8B821CD
:1022E000002A7FF4FDAC0360C4E96D00C4F8BC01B2
:1022F000FEE409FB11315B4840F2E24389B203FB83
:1023000001F1A1FB000154A3D3E90023FEF71CFA5D
:102310002D1AFFF708BB544A5449554840F6AF03FD
:102320001EF05DFB404080F311884FF0030002DF98
:10233000D9F80000FFF7A9BA94F8757194F87411F0
:102340008F4200F02F824B490F68002F00F0FA8473
:10235000BC427FF4D0A994F8767107F00707052FE7
:1023600000F2BD870FF2040E5EF827F0792400001A
:10237000D723000085230000ED160000ED160000B5
:10238000ED16000093073FF5B6A911F0CDFB01460D
:1023900000283FF4A9AD037F94F87621032060F371
:1023A000020243F003030227182084F87621A28D4D
:1023B0000F710B774877B4F878310B84B4F87A3121
:1023C0004B84B4F87C318B84B4F87E31CB840F23FA
:1023D000CA80CB7783E594F87731002B40F0E6850F
:1023E00094F93D20002AC0F2298694F87611C4F8A9
:1023F0001431052262F3020194F8802184F87611E9
:10240000012084F81801002A00F03487B4F87831EC
:10241000B3FBF2F3034413FB02F39BB294F876216F
:1024200094F80A11B4F87C01A4F80E01C2F3C002BA
:10243000920021F0070142F002020A430CF1FF3C36
:10244000B4F87E11A4F80C31A4F8101184F80A2114
:1024500084F809C1FFF74FB98D49FD1A0700000044
:10246000782A002000CA9A3BF0770200D078020058
:10247000C0720200FC290020D3480B91E78EB4F80B
:1024800032800CF0F1FF0B99024600283FF42CAD8E
:10249000137907EB080094F876714FF0040C43F0C1
:1024A00003036CF3020784F87671137118235371D8
:1024B000B4F878711781B4F87A7157810023B4F8B1
:1024C0007C7197813044B4F87E711374A2F81100C6
:1024D000D374D4F8B40113754FF0FF33537593756B
:1024E000D375137653769376D376137753779377A2
:1024F0000F23D781D371002800F0268594F8563138
:102500009F0700F1218594F8AF31DB0700F11C85AE
:10251000D4F8C031984204BF0368C4F8C031D4F87D
:10252000B831002B00F0B586D4F8BC3118681060C3
:102530001A60C4F8BC211368002B00F0FF85B4F8C2
:10254000CE30A4F8D03023680C60002BC4F894512E
:102550000ADAD4E9010723F0004387422CBFE919C6
:102560002918CB1AC4F894311332984BC4F890212F
:102570000122022110469C600DF04AF800283FF429
:10258000B3AC934A934940F6663393481EF027FA5A
:10259000404080F311884FF0030002DFA4E4228E54
:1025A000B4F810C18A427FF47DA940F2E24202FBF6
:1025B00003FE42F2107202FB0CE2013AB2FBFEF2A1
:1025C000B4F8CAE092B296457FF46CA9032389F867
:1025D0000430FFF776B90122104602210CF0E6FF25
:1025E0006FF08B00FFF78EB84FF4A478CDF82C80F5
:1025F000FFF7CABAD4F8B821002A7FF4F3AC03601D
:10260000C4E96D00C4F8BC01F4E4D4F8B821002A90
:102610007FF4E8AD3360C4E96D66C4F8BC61E9E5F8
:10262000A26C236DDFF8B49102FB1B33236519F014
:10263000EBFA064694F8E000C0F3820019F0E6FADF
:10264000331807FB03F3664E94F8182103F574233F
:1026500003F23F23A6FB0336B60C08FB02F2236D00
:10266000A26506FB0AF17A080B44963A934228BF0A
:102670001346C4E913230023A664A1FB0901C4F88F
:10268000E8304FA3D3E90023FEF75EF8D4F8143105
:102690002D1A5448A0FB0330800A08FB00F0A0FB71
:1026A000090147A3D3E90023FEF74EF8BE1BB4F897
:1026B0000C9120F07F48FFF755B943480CF0D4FE49
:1026C00000283FF411AC94F81D31013B84F81D3112
:1026D000454BC4F820310923437194F93D3087609C
:1026E000C760002BD4F820310372C3F30722427273
:1026F0004FEA13430279837242F00302D4F8B431F3
:102700000271ACBF08220E22C271002B00F02281A0
:1027100094F85621910700F11D8194F8AF21D2075A
:1027200000F11881D4F8C021934204BF1A68C4F89C
:10273000C021D4F8B821002A00F02284D4F8BC319A
:102740001A68026018600368C4F8BC01002B00F02E
:10275000C282B4F8CE30A4F8D03094F8EC0094F8EB
:10276000ED30FEF7C3BFC4F8C401FFF7C4BAD4F814
:10277000B821002A7FF4A0AD2B60C4E96D55C4F8E0
:10278000BC51A1E594F8682094F86000C5F382017B
:1027900061F3020284F86820424612F0BBF9064653
:1027A000FFF7F8B994F89D1194F89C21914200F03C
:1027B0005A81204612F09AFCFFF796BBAFF30080D7
:1027C0008D49FD1A07000000782A002068050020C6
:1027D000F0770200AC750200C072020000CA9A3B9A
:1027E00083DE1B435917B7D1FF490100D14AD249B3
:1027F000D24840F628631EF0F2F8404080F311887A
:102800004FF0030002DF286894F8F0B0FFF7E5B955
:10281000C84AC949C94840F654631EF0E0F8404030
:1028200080F311884FF0030002DF2868FFF7FAB940
:10283000C34870E404F183073B462A4604F1F201E1
:1028400004F261101AF066F8D4F88B2094F89B30EB
:10285000C4F8AC20D4F88320C4F8A420D4F89C2079
:10286000C4F8BD2065F30003D4F8A020C4F8C1204B
:1028700084F89B3094F8BC2094F88230D4F8871008
:10288000D4F88F00C4F8B00042F0010243F008030E
:10289000C4F8A81084F8935084F8945084F89550A4
:1028A00084F8965084F8975084F8985084F899509A
:1028B00084F89A50C4F8B450C4F8B85084F8BC20D6
:1028C00084F88230B8F1000F00F06F82DAB242F083
:1028D0001002337984F882200121717143F00303DF
:1028E0000622D4F8B8C1D4F8B4013371F2710028CB
:1028F00000F09A8094F856319F0700F1958094F883
:10290000AF31DD0700F19080D4F8C031834204BFBD
:102910000368C4F8C031BCF1000F00F04083D4F864
:10292000BC311A6832601E603068C4F8BC6100288F
:102930007FF4BCABC4F8C461FFF7B8BBD4F8B821CE
:10294000002A7FF425AA3B60C4E96D77C4F8BC7106
:10295000FFF726BAD4F8B821002A7FF4EFAE03605F
:10296000C4E96D00C4F8BC01F0E604F183073B46FE
:102970002A4604F1F20104F2611019F0CBFFD4F8F9
:102980008B20C4F8AC20D4F89C2094F89B30C4F879
:10299000BD20D4F8A020D4F88710C4F8C120D4F802
:1029A000830094F88220D4F88F70C4F8A810C4F87B
:1029B000B07094F8BC10C4F8A40043F0010384F88C
:1029C0009B3042F00802337984F8822065F30001DD
:1029D0000122C4E92D5584F8935084F8945084F86A
:1029E000955084F8965084F8975084F8985084F85D
:1029F000995084F89A5084F8BC1043F00303727124
:102A000005223371F271D4F8B431002B7FF42DAB71
:102A1000D4F8B821002A7FF43EAB3360C4E96D6678
:102A2000C4F8BC61FFF73EBBBCF1000F00F0AC8105
:102A3000D4F8BC211368336016603068C4F8BC61F8
:102A400075E74048FFF767BB3A4A3F493B4840F6C5
:102A500039031DF0C4FF404080F311884FF003009C
:102A600002DFFFF7A4BB94F8AC2194F8AD119142BA
:102A70003EF441AE94F8AE1101F00300032800F0DB
:102A8000758300287EF437AE30480CF0EDFC01462B
:102A900000283FF429AA94F8AE31012262F3010321
:102AA00094F8B02184F8AE31C3F3820060F30202DF
:102AB00094F8AF01C3F34217C0F3400067F3061266
:102AC00060F3C30284F8B021C3F3820203230A72C5
:102AD0004F7216224B71D4F8B431CA710A7942F0A0
:102AE00003020A71002B00F02D8394F856219707FA
:102AF00000F1288394F8AF21D00700F12383D4F8A4
:102B0000C021934204BF1A68C4F8C021D4F8B82188
:102B1000002A00F0CB83D4F8BC311A680A6019602F
:102B2000C4F8BC110B68002B7FF413AEC4F8C411B9
:102B30000FE600BFF0770200D0780200C0720200FA
:102B4000793E000055860100AC750200782A00200D
:102B500092457FF453A803232B71294610F0B6FF4A
:102B6000D4F80451002D00F0CD822868002800F030
:102B7000C9824268C4F8042103232B71294610F04E
:102B8000A5FF10F0ADFFFEF7B6BD238E1E44B31DAA
:102B9000A4F8F23010F0C8FFD8F80030D4F80421BF
:102BA0005A60C4F8048110F0BFFF0368D4F8042110
:102BB0005A6094F8F030B4F8F220C4F80401C3F37A
:102BC00082075B09FFF752BBB84AB94940F6173391
:102BD000DBE4B8480CF048FC00283FF485A994F8E1
:102BE0002931013B84F8293194F82A3143F001035B
:102BF00084F82A31037943F00303037106234371F8
:102C00000C23C3710B2303726FF00E034372052371
:102C100083724FF0FF33C3720373D4F8B431002BC7
:102C200000F0B88094F85621910700F1B38094F831
:102C3000AF21D20700F1AE80D4F8C021934204BF87
:102C40001A68C4F8C021D4F8B821002A00F00C8317
:102C5000D4F8BC311A6802601860C4F8BC0103687B
:102C600074E5B8F1000F00F02781027943F01003FA
:102C7000012184F88230417142F00303D4F8B85145
:102C8000D4F8B41103710622C27139B394F85631E5
:102C90009F0723D494F8AF31D8071FD4D4F8C0319C
:102CA000994204BF0B68C4F8C031002D00F0408287
:102CB000D4F8BC311A6832601E60C4F8BC61336855
:102CC000002B00F0C78094F8563123F0030384F8FA
:102CD0005631FFF7EBB9C4F8C4013AE5002DE7D14E
:102CE0003160C4E96D66C4F8BC61E8E70D23F37197
:102CF00035720227FFF7B0B910F016FFA38DA8F8C0
:102D00000630102388F81C7088F8043094F8683076
:102D1000D8F80000C3F3020388F81D3094F8693036
:102D2000C3F3020388F81E30414610F0CFFE10F0C6
:102D3000D7FE94F8F030B4F8F220C3F382075B09B1
:102D4000FFF794BA94F8763103F00703052B00F2ED
:102D5000C68201A050F823F079240000D723000098
:102D600085230000F7160000F7160000F716000094
:102D7000C4F8C471FFF717B81A68026018600368D6
:102D8000C4E96E00FEF7B4BF3060C4E96D66C4F8F4
:102D9000BC61CCE5D4F8B821002A7FF459AF0360B8
:102DA000C4E96D00C4F8BC0159E742480CF05CFB73
:102DB0000346002800F0698294F88220012142F045
:102DC000100284F88220027941710621C171D4F881
:102DD000B41142F0030202710846F9B194F8562189
:102DE00095071BD494F8AF21D20717D4D4F8C0218B
:102DF000D4F8B851914204BF0A68C4F8C021002D2C
:102E000000F08F81D4F8BC21106818601360C4F8FA
:102E1000BC311A68CAB10846AC466BE5D4F8B85163
:102E2000AC46D5B1D4F8BC2117681F6013601F6889
:102E3000C4F8BC311A4647B100293FF4FBAD94F801
:102E400056319B077FF55BADF4E5C4F8C431084605
:102E5000AC464CE5C4F8C46135E719601D46C4E9C9
:102E60006D33C4F8BC311946D3E71A6832601E606E
:102E70003368C4E96E66FFF7BDB91A68026018606E
:102E80000368C4E96E00FFF7B5B81A682A601D60D0
:102E90002B68C4E96E55FFF717BA032329462B7137
:102EA00010F014FE10F01CFEFEF725BCF0770200B7
:102EB00058730200782A0020A8480CF0D5FA0028A0
:102EC00000F0078294F88220012142F0100284F879
:102ED0008220027941710621C171D4F8B41142F007
:102EE0000302027109B394F8562192071DD494F895
:102EF000AF21D30719D4D4F8C021D4F8B8519142E6
:102F000004BF1268C4F8C021002D00F0B781D4F8C6
:102F1000BC21136803601060C4F8BC010268002A79
:102F20007FF4B4AEC4F8C401AFE6D4F8B851FDB133
:102F3000D4F8BC211368036010600268C4F8BC01B7
:102F4000002A7FF4A2AEEDE7D4F8B831002B7FF46D
:102F5000EBAA1060C4E96D22C4F8BC21FFF7EBBAFC
:102F60001A683A601F603B68C4E96E77FEF718BFC5
:102F700001600546C4E96D00C4F8BC010146CDE717
:102F80001A68026018600368C4E96E00FFF7DEBBD0
:102F90001A6832601E60C4E96E66FFF783B8036882
:102FA000336006603068C4E96E66C0E46B480B911C
:102FB0000CF05AFA0B99024600283EF495AF0379BB
:102FC00043F0030303711123C371032343710F23E0
:102FD000037294F877314372D4F8B431002B00F0C7
:102FE000078194F85601870700F1028194F8AF0138
:102FF000C00700F1FD80D4F8C001834204BF186807
:10300000C4F8C001D4F8B801002800F04981D4F810
:10301000BC31186810601A60C4F8BC211368002B1A
:1030200000F05A8194F8743184F8753100230B60F4
:1030300094F8EC0094F8ED30FEF758BB47480B913C
:103040000CF012FA0B99034600283EF44DAF0279BA
:1030500042F00302027118224271B4F87821028111
:10306000B4F87A214281B4F87C218281B4F87E21BF
:10307000C2811022C27194F880210274B4F88201D6
:10308000D4F8B421A3F81100B4F88401A3F8130014
:10309000B4F88601A3F81500B4F88801A3F8170066
:1030A000B4F88A01A3F81900B4F88C01A3F81B0046
:1030B000B4F88E01A3F81D00002A00F0A48094F853
:1030C0005601870700F19F8094F8AF01C00700F117
:1030D0009A80D4F8C001824204BF1068C4F8C001CD
:1030E000D4F8B801002800F0EE80D4F8BC211068B4
:1030F00018601360C4F8BC311A68002A92D1C4F871
:10310000C4318FE7164A1749174840F637631DF058
:1031100066FC404080F311884FF0030002DF28680E
:1031200027E50A681A601D460B60C4E96E3370E635
:103130000B6833600E60C4E96E66C0E5C4F8C42154
:10314000FFF7FDB9D4F8B821002A7FF4E4AC0B6096
:10315000C4E96D11C4F8BC11E4E400BF782A002072
:10316000F0770200D0780200C072020084F8AD212E
:10317000C1F38202090759D594F8AE21022161F307
:10318000840284F8AE2194F8AE2150064FEA521121
:1031900044D5022161F3471284F8AE21023B94F832
:1031A000AE2194F8687094F8690084F8ED3094F8D2
:1031B000AF31C2F3820107F0070700F00700C3F345
:1031C00080038F4208BF00215B00B0EB521F43F029
:1031D00001034FEA521208BF002243EA421343EAB6
:1031E0008103062284F8F03084F8EE20FEF79ABAC4
:1031F000D4F8B80100287FF40AAF1360C4E96D2247
:10320000C4F8BC210AE7D4F8B80100287FF46DAFF8
:103210001A60C4E96D33C4F8BC316DE7CF070FD530
:10322000012161F3471284F8AE21B7E7D70710D523
:1032300094F8AE21012161F3840284F8AE21A2E763
:1032400011F0040118BF042161F3471284F8AE2184
:10325000A4E712F004022FD094F8AE21042161F308
:10326000840284F8AE218EE71A6802601860C4E90F
:103270006E00F4E4B4F87A31FFF7D0B80A6802605F
:1032800005460860C4E96E0048E6D4E96D0CFFF716
:103290002EBB036813600260C4E96E22FFF74BB9CE
:1032A000186810601A60C4E96E22B7E61A680A60EE
:1032B0001960C4E96E1135E494F8AE1162F384012B
:1032C00084F8AE115FE7106818601360C4E96E33CC
:1032D00012E7D4E96D15D8E4C4F8C421A2E6034A84
:1032E000034940F62443FFF750B900BFF0770200CE
:1032F00058730200000000002DE9F04F1D461368CE
:1033000093B01B680B930C462B46C98D53F80C9B4E
:10331000924694F83020A9819A70D4F82A30AB6094
:10332000D4F83A30EB61074605F11C0094F83E30C2
:10333000037105210CF064FA95F8213000F03F008C
:1033400060F30503012885F821300AD994F83F205D
:1033500002F01F03053BC2F304010B2B85F822107A
:1033600002D913B0BDE8F08FDAF80030002199607F
:10337000A68E6E8294F8371094F8363043EA012313
:10338000AB8299F8E030520962F38403628E89F8C7
:10339000E0300C9218F038FC804699F8E000C0F359
:1033A000820018F033FC40F2E24BB6B20BFB06F69B
:1033B000404406FB00F0BE4BBE4AA98A00F57420CB
:1033C00000F23F20A3FB003094F831300BFB03F3F5
:1033D0002B647308800C963BE8622B63B4F838B01A
:1033E000B54B42F210703244B2FBF6F2A9F8CE208F
:1033F0001FFA8BF200FB02623344013A881DB2FBD4
:10340000F6F2B3FBF6F3A9F8CA209AB28242A9F801
:10341000D62002DD521A063A92B2A9F8D220AB6841
:10342000C9F8E4304FF4807394F81C80A383638C54
:10343000ADF844300B9BD4F81E00109093F82A008E
:103440009AF812300D93C8F380130E93C8F340130B
:103450000F93984616F0C8F90D9B04F11E01002841
:1034600040F0E980FF2BC4F82B00A4F82F0000F0F7
:10347000EB80184604F11F0215F098FBBDF84430AC
:10348000A4F82930A37F1098C4F825000233A3774D
:1034900099F8E0306A8A6286C3F38203AA8AA28618
:1034A00084F83830A4F836B0484611F02BFF214696
:1034B0002882E080DAF80440384610F007FB2B8AB7
:1034C000E3800F2320682371B8F1000F00F0CC8057
:1034D00095F821306A8943F0400385F821302B8923
:1034E00053406B8401232377214610F0EFFA10F04C
:1034F000F7FA95F84D00012100F0070017F09CFA4B
:1035000083466E48002731230BF25241C9F8003040
:10351000C9E9017764A3D3E90023A1FB0001FDF70A
:1035200013F90C9B591CEB6AF61ADAF80C3020F0F0
:103530007F40A3F5AE7440F2E24303FB01443A46F8
:103540000221C9F80C0001200CF030F80B9D284630
:1035500011F002F8821C5A4B0095D2B23846012174
:103560000DF06CFB0128A4EB0B0400F089800B9B91
:1035700093F82830DB077BD4484611F0C3FE4F4B4D
:10358000A6FB0386054648A3D3E9002340463146FF
:10359000FDF7DAF8DAF80830CDF81890A3F1310A1F
:1035A000484B0793484B059340F23D130893D9F8D5
:1035B0000C3020F07F4745484FF0000BCDE903B3B6
:1035C000A7FB00010723B8EB000003FB071166EB24
:1035D00001014FF47A720023FDF7B6F8374BCDE9BD
:1035E0000170A4FB030130A3D3E90023FDF7ACF87D
:1035F000053520F07F40EDB2009053462A46012168
:1036000058460DF0ADFA30F002030CD0304A314983
:1036100031484FF49F731DF0E2F9404080F3118868
:103620004FF0030002DF01220221104613B0BDE873
:10363000F04F0BF0BBBF626AC4F82B20FF2B228D2A
:10364000A4F82F207FF415AF0022BDF844109DF898
:1036500038301098C4F82520A4F82920A377A4F8BE
:103660002310C4F81F0013E79DF83C3023773BE795
:10367000002301220093184611460DF0DFFA7BE784
:1036800010F0C6FA0B9B83423FF471AF104A134906
:1036900011484FF4EC731DF0A2F9404080F31188FB
:1036A0004FF0030002DF62E78D49FD1A07000000BA
:1036B00083DE1B43FF5962027FC3C90100CA9A3BE4
:1036C000FD7D0100CD7D0100397E01008D49FD1A8F
:1036D000287A0200E4780200C07202006C7A0200CC
:1036E0002DE9F041D0E90B35866A5C193034A642E9
:1036F0008846174618D81C4DA3FB050118A3D3E92B
:103700000023FDF721F8A41B20F07F40C8F800003B
:1037100013A3D3E90023A4FB0501FDF715F820F05E
:103720007F403860BDE8F0810F4C0DA3D3E9002342
:10373000A6FB0401FDF708F805F1300120F07F40F9
:10374000C8F8000006A3D3E90023A1FB0401FCF79D
:10375000FBFF20F07F403860BDE8F081AFF30080D0
:103760008D49FD1A0700000000CA9A3B00000000C6
:103770002DE9F04F17461D46126891F81C80D2F8CB
:1037800000902E68002393608B837B7C0A8D8DB024
:103790008346486A0A9013F00103B87C1CBFD1F835
:1037A0001E30C1F82B30C8F3401A14BF4B8CC1F83F
:1037B0002B30FF28ADF82C200C46C8F3C012A1F81E
:1037C0002F30D04640F0D580BDF82C00A4F823005F
:1037D00000210A98C4F82510A4F82910A277C4F88B
:1037E0001F006B8A6386AB8AA386B9F83030E38604
:1037F00018F008FA84F83800304611F083FD2146AD
:103800002882E0807C68584610F060F9288AD4F855
:1038100000B0E0800F232371B8F1000F00F0A68004
:1038200095F821306A8943F0400385F821302B89CF
:1038300053406B840123237716F0B8F9214658468C
:1038400010F044F910F04CF995F84C00DFF850A155
:10385000C0F3C00100F0070017F0ECF80024834625
:10386000312300F252403360C6E901444AA3D3E950
:103870000023A0FB0A01FCF767FFB5F81280FD6882
:1038800020F07F4040F2E243F06022460221012016
:1038900003FB08F80BF08AFE484611F095F8021D6C
:1038A000D2B2404B0092012120460DF0C7F92346C9
:1038B00003220121009420460DF0C0F9304611F09A
:1038C00021FDBB680696A3F13109374B0793374BAF
:1038D000059340F2CE230893F36888FB0A86CDE96E
:1038E0000343471D2CA3D3E9002340463146FCF790
:1038F0002BFF104619464FF47A720023FCF724FF81
:1039000025A3D3E90023029031464046FCF71CFF73
:10391000A5F58775A5EB0B051FA3D3E9002301903F
:10392000A5FB0A01FCF710FFFFB220F07F400090DA
:103930004B463A46012120460DF012F930F00203C1
:103940000CD01B4A1B491C4840F2CF231DF047F8FE
:10395000404080F311884FF0030002DF0122022172
:1039600010460DB0BDE8F04F0BF020BE84F81CA04F
:1039700062E701F11F021E3115F018F9BDF82C3075
:10398000A4F82930A37F0A98C4F825000233A3774E
:1039900027E700BFAFF300808D49FD1A0700000044
:1039A00000CA9A3B817F0100857F0100B57F01003D
:1039B000B07A0200E4780200C07202000000000049
:1039C0002DE9F04F91B0CDE90912069390F93D3001
:1039D000C2681A9FDDF86CA00790002B0B9202DAE8
:1039E000134614330B9300264FF0FF08CDE90D6604
:1039F000DFF89CB28DF833803446CDF81480B146A0
:103A00000496354646E09DF83330FF2B66D0B8F17A
:103A1000FF0F11D00E9A4A450ED09E499E484FF492
:103A2000BB735A461CF0DBFF404080F311884FF017
:103A3000030002DF9DF833309A1E032A27D8052B96
:103A400040F09980059BFF2B40F09180002011F001
:103A500061FC079B83421AD0099B002B40F0A48095
:103A600090F93D30002B12DBC368DDF83480DDF8BF
:103A70002490283308930A9B1B684345C0F0A48018
:103A8000089BDDF83890049345469DF833803B78D9
:103A9000A34274D90FAB0293804B01930DAB0093FB
:103AA00002210EAB0DF1330200200F910DF008F949
:103AB00002286ED00F9B002BA5D07949764840F2A2
:103AC0006D135A461CF08BFF404080F311884FF075
:103AD000030002DF9DF83330FF2B98D10A9B1B684F
:103AE0009D4238BF1D463B78A3423ED9049B6D4E94
:103AF0002B44A3FB06014FF0070B0BFB031162A342
:103B0000D3E90023FCF720FE674B069AA3FB0030A5
:103B1000C0F38F239A424FEA902040F2A9800FF21F
:103B20006819D9E9008912E0A3FB06010BFB031118
:103B300042464B46FCF708FE5B4B069AA3FB00305F
:103B4000C0F38F239A424FEA902040F291800AEB13
:103B500044020AF814001B0A53703A78049B01349B
:103B6000E4B22835A2422B44DED80A9B1D603C708B
:103B700011B0BDE8F08F05933B78A3428AD89DF839
:103B80003330FF2BF3D10A9B1B689D4238BF1D4683
:103B9000EBE70F9B022B8DD1022100200DF0D6F810
:103BA0000F9B022BF8D085E790F93D20C368DDF824
:103BB0003480002A53DA3C3308930A9B1B68434540
:103BC0004FF01409BFF45CAF9D4238BF1D463B78EF
:103BD000A34235D9049B0B9A1344994433464E466D
:103BE000994623E02F4B0721A2FB030301FB02317F
:103BF00025A3D3E90023FCF7A7FD2B4BA3FB003043
:103C0000069BC0F38F29994505F128050AEB44026C
:103C100004F101014FEA90202ED20AF81400CCB230
:103C20004FEA192151703A78A2421DD929464046DF
:103C30000DF0A6F8049BB04203EB0502D2D24E462B
:103C40000A9B1D60069BB3423FF61AAF9DF83330C6
:103C5000FF2B3FF443AF3C7011B0BDE8F08F283329
:103C600008934FF0000906E70A9B4E461D6007E7E0
:103C70000A9B00251D607AE70A9B00221A60154600
:103C8000E4E700BFAFF3008000CA9A3B00000000E9
:103C9000087B020058730200C072020039860100DE
:103CA0004C7B02008D49FD1A5917B7D10000000066
:103CB0002DE9F04F8FB01E4609931546FF230A1DCC
:103CC000DFF80481DFF804B1DFF804A1DFF8049124
:103CD00008920021316004468DF82F3004930C9136
:103CE000059106910DAF0CAE02230D93CDE901872E
:103CF00000962B460DF12F02214600200CF0E0FF2C
:103D000002282FD00D9B002B32D19DF82F30FF2B96
:103D10003ED0052BE8D1002011F0FCFA0028E3D0BA
:103D200090F93D30002BDFDB0499C2680C9BFF2922
:103D300002F104020CD006990792184604930DF084
:103D40001FF8059B089A99188842049B079A22D865
:103D5000CDE905239DF82F300493C5E721460020C7
:103D60000CF0F4FF0D9B022BF8D00D9B002BCCD058
:103D700052235A46514648461CF031FE404080F3DB
:103D800011884FF0030002DF9DF82F30FF2BC0D1C8
:103D9000049BFF2B10D0DDE905320F481344A3FB31
:103DA0000001072202FB031105A3D3E90023FCF75E
:103DB000CBFC099B803018600FB0BDE8F08F00BFCE
:103DC00000CA9A3B0000000039860100087B02000F
:103DD0004C7B0200C07202008D49FD1A00000000F9
:103DE00070B582B01C4601921546064601AA022013
:103DF000FFF75EFF23680BB30198431B1B021FD420
:103E000029460CF0BDFF1A4A03460721A0FB020217
:103E100001FB032114A3D3E90023FCF795FC2268DE
:103E200002442260002A09DB40F2E24006FB00F077
:103E3000904203D2121A8242FCD8226002B070BDB6
:103E4000014628460CF09CFF094A03460721A0FBC7
:103E5000020201FB032104A3D3E90023FCF774FC55
:103E60002268121A2260DDE700CA9A3B00000000B7
:103E70008D49FD1A000000002DE9F041B0F88411D1
:103E800088B0044640F2E243414803FB01F10623B7
:103E9000002605AD8DF80F3081FB00013AA3D3E970
:103EA0000023C5E901660596FCF74EFC0DF10F03F2
:103EB00001950093B4F87A31049004AA20460121B8
:103EC000FFF77EFD9DF80F8008F1FF3C5FFA8CFC48
:103ED0000DF11603304604F5C27703EB4C0C04F5E4
:103EE000C8764FF6FF7E3A88B8F1000F0AD02B460D
:103EF000724504D0198891424FF0010016D0023368
:103F00009C45F5D10237BE42EDD1E8B9BDF8143079
:103F1000D4F8F41040F2E24203FB02F2180AC4F8AB
:103F200014210B70487008B0BDE8F081D4F8F4108B
:103F300040F2E24302FB03F3100AC4F814310A70A2
:103F4000487008B0BDE8F08194F8EC2094F8743122
:103F500084F8ED2084F8753113F032FFD4F8F43092
:103F600013F8052C0324224311200F2103F8052CFC
:103F7000202203F8044C03F8020C03F8011C1A7009
:103F800008B0BDE8F08100BF8D49FD1A07000000B0
:103F900000CA9A3B000000002DE9F04F83B00446B0
:103FA00018F07CFFC0B250B916F05AFD8A4821467D
:103FB00018F032FE03B0BDE8F04F18F045BF18F01E
:103FC0008DFF5FFA80F819F013F8C6B219F01AF8ED
:103FD000074619F025FAC5B219F010FA824618F012
:103FE000CBFF814616F03CFD002E40F0AB80002D4B
:103FF00040F0BA80FF27B8F1000FD7D0A37D190792
:1040000000F1A880002E40F0AD8101200FF060FE8D
:104010008046002800F00D82A3685FFA89F6002B25
:1040200000F0AF80A37D1A0740F1A48098F81C002F
:1040300010F00F0340F0CD8198F81D30252B00F2D1
:104040006A8104200FF044FE0028AFD019F0ECF88C
:10405000A36A814643B9E38C40F2712202FB03F369
:10406000B0FBF3F203FB12092368DA685B4B07210C
:10407000A2FB030301FB023155A3D3E90023FCF7A4
:1040800063FBA0F242334B4590D318F04FFFD4F8B6
:1040900008B018F031FF98F81C300278C3F3801391
:1040A000DB0102F0500243F0250313430370222387
:1040B00043708146384615F0A5FBE37D0090DA0792
:1040C00040F12A82002800F0278299F800204B4610
:1040D00042F0400203F8022B0268C9F802208288ED
:1040E0009A80D8F81E30C9F80830B8F82230A9F8FC
:1040F0000C30DBF80830C9F80E30BBF80C309BF8F8
:104100000E2089F81420A9F812300123BBF81210F0
:1041100089F81530019119F087F8D4F810A000F54E
:10412000DB63BAF1000F00F01D82019940F2E24218
:1041300002FB01F10A46BAF1000F01DB53454FD9EA
:104140009244F8E7A07DF9B2C0F3C00015F07EFB01
:10415000074650E7002E7FF458AF384615F032FC82
:1041600000287FF452AF21E75FFA8AF015F0D8FB00
:10417000074640E7FF2F00F0E181237EBB423FF47A
:1041800055AF98F81C0010F00F0340F0F78098F836
:104190001D30252B3FF60AAF94F91620002AC0F2F5
:1041A0005681252B98BF4FF0000900F2B480002BF8
:1041B0003FF4FCAEA368002B7FF4F8AE002D4A4616
:1041C00014BF3946FF21304617F030FCEEE600BF41
:1041D00000CA9A3B00000000A5B701008D49FD1AF6
:1041E000C74AAAEB0303A2FB03239B0AA9F81630D4
:1041F00099F81530013389F81530BBF81230A9F859
:104200001830BBF81430A9F81A30A38AA9F81C306A
:10421000DBF81C30C9F81E309BF8203089F82230BA
:104220009BF8222099F8233062F3040389F82330A5
:1042300017F0E8FC99F8233060F3471389F823302E
:10424000484618F0D3FD18F01FFE002840F090817A
:10425000AC48214618F0E0FC002E40F0A5812379FF
:1042600043F00102DB07227100F190810FF04EFD57
:104270000A23037198F81CE04FF6FF730646C380CB
:10428000CEF3401E1C3009F12008D9F80010D9F8EF
:104290000420D9F80830D9F80CC0C0F80CC009F1D6
:1042A0001009C14501604260836000F11000ECD14B
:1042B000D9F800300360337FB4606EF34513337771
:1042C00018F05EFF00213061084618F09FFD002DB8
:1042D00008BFFF27B776E27DAAEB000012F00102CB
:1042E000706103D0009B1A1E18BF0122737E62F317
:1042F000000373760FF00AFD3146F06030680FF06E
:104300001BFD03B0BDE8F04F0FF026BD98F81D303F
:10431000252B7FF641AF00F00F0004287FF446AE56
:1043200098F81D30252B3FF641AEA37DDA077FF5C7
:104330003DAE18F0E1FD98F81C300278C3F380130D
:10434000B3EBD21F7FF432AE0830062208F11E0113
:1043500021F091FF00287FF429AE98F81D304FF02E
:10436000000924E73946284615F068FB00287FF449
:104370004CAEA37D1B077FF519AE46E6062BC5D0D4
:10438000022B00F0BA80012BC5D198F81D300C2B00
:104390007FF40CAE08F1240AC0093A46514615F0E4
:1043A000BFFB81460028D8D1A37D98F81C00C3F339
:1043B0008012B2EBD01F00F0FC80C3F3C10398075A
:1043C00004D598F91C30002BC0F2038198F81C002A
:1043D000A1E7012BD2D198F81D300C2B7FF4E6AD6C
:1043E00008F12409C0093A46494615F099FB00280E
:1043F0007FF427AEE37DDB0700F1E480A37D98F82E
:104400001C00C3F38012B2EBD01F00F0FF80C3F397
:10441000C10398077FF5B5AE98F91C30002BBFF6A5
:10442000B0AE98F8293003F0C003402B7FF4A9AE5A
:1044300007E6354A3549364840F297231CF0CFFA53
:10444000404080F311884FF0030002DFE4E5A268EA
:10445000002A7FF4A6AE962018F0EAFD002018F09E
:104460004FFD002D14BF3946FF210022304617F0C2
:10447000DDFA00287FF49AAD18F03EFD98F81C3064
:104480000546C3F380132A78DB0102F0700243F083
:10449000030313432B700C2338466B7015F0B2F9ED
:1044A000E27DD60740F1A180002800F09E802978A7
:1044B0002A4641F0400102F8021B0168C5F80210CB
:1044C00083889380D8F81E30AB60B8F82230AB8177
:1044D000284618F08BFC18F0D7FC002840F0A48088
:1044E00018F09AFEA37D0B4843F001032146A37503
:1044F00003B0BDE8F04F18F08FBB98F81D3050E6C0
:104500005917B7D1F5B90100987F0200E47F020086
:10451000C0720200C1B70100A37D99F80020C3F367
:10452000801363F386124B4603F8022BD4F819204C
:10453000C9F80220B4F81D209A80D2E598F81C0032
:10454000C3F34013C0F3801293427FF41CAE0622E3
:1045500008F11E0104F11F0021F08DFE00283FF438
:1045600065AD0EE689F816A089F817A09A4644E6CC
:10457000344A354935484FF444731CF030FA404012
:1045800080F311884FF0030002DF61E62D4A3049C5
:104590002E4840F236331CF022FA404080F3118856
:1045A0004FF0030002DF61E618F0D8FC8BF8A90099
:1045B00055E65146062204F1190021F05CFE80B355
:1045C000A37DFAE6384615F01DF900287FF4D9AD31
:1045D00014E798F8293003F0C003402B7FF4F6AEBF
:1045E00098F81D304FF00109E1E5A37D2A78C3F367
:1045F000801363F386122B4603F8022BD4F819209C
:10460000C5F80220B4F81D209A805BE749460622CF
:1046100004F1190021F02FFE00283FF412ADA37D14
:10462000F5E698F81D30C2E5064A0749074840F20A
:1046300091331CF0D4F9404080F311884FF003000F
:1046400002DF4DE7987F0200607F0200C072020027
:104650009475020038B50D4614462AB903481CF07B
:10466000BEF92C81204638BD0120FCE7EC83020016
:1046700010B5054C05481CF0B2F9206818B11EF0C1
:1046800097FE0023236010BDE0190020FC83020088
:104690007FB51422002101A821F00BFE01230A4955
:1046A0008DF8043001A8094B039305F07BFB01460C
:1046B00028B107481CF093F907B05DF804FB0548E2
:1046C0001CF08DF9F8E700BF214A000060003000BF
:1046D0001A8402003D84020008B521B1BDE80840FB
:1046E00005481CF07CB91EF05CFE044B1860BDE868
:1046F000084003481CF073B95C840200E0190020F4
:104700007C840200F0B5064685B014460D4651B9CA
:1047100033481CF064F914222946204621F0C9FDD3
:10472000002005B0F0BD2F4C098A2F481CF057F926
:10473000002741F60D032068ADF8063001A98DF879
:1047400004701EF047FA42F63723B8B9ADF80E30C0
:104750008DF80C00254B039A1A6023602B8A0133D5
:104760002381032323742146304608F0E5FB0146EC
:104770000028D5D01E481CF032F9D1E720688DF80A
:10478000087002A9ADF80A301EF024FA194F2B8ADE
:1047900090B942F602128DF80C00ADF80E20134AC3
:1047A0000399116002332381284604232260237475
:1047B00008F058F93881D6E70F4A3A6039460122A5
:1047C0003046BA817B811FF022FE014620B110F1F4
:1047D000780F01D00948CEE709481CF000F99FE79F
:1047E00087840200E41900209A8402001436002015
:1047F000B1840200F819002055460000CB84020065
:10480000E68402002DE9F0470378023B012B88B0D3
:1048100005460F4603D9012008B0BDE8F08744786B
:1048200014F0010437D01F481CF0D9F8F3E76B6887
:1048300004AE1B5BADF80630314601A88DF804804C
:104840008DF81080ADF812901EF0C4F930B905F063
:1048500007FB014638B150461CF0C1F802346B78B2
:104860009C42E4DBD7E7104B1868596802AA08336A
:1048700003C20FCB86E80F0031460C4B02AA384624
:1048800006F06EF8014620B109481CF0A8F8FFF7C1
:10489000FFFE0020C0E7DFF81CA0A04641F60D098E
:1048A000DDE700BFF4840200B0690200E0190020D7
:1048B000208502000285020070B503788AB00446A4
:1048C0000E4607AD032B20D8DFE803F002191B1DAD
:1048D0001149284621F089FD63780493A378039356
:1048E000E378029323790193637900930B4AA379C8
:1048F00005951E2130461CF07FF80AB070BD0849AE
:10490000E7E70849E5E70849E3E7084A0A212846B6
:104910001CF072F8E0E700BF3D8502005F850200F1
:10492000448502004B85020055850200D9A2020091
:1049300000B589B01EF051FD6946FFF7BDFF034881
:1049400069461CF04CF809B05DF804FB8285020052
:1049500030B589B00D4604461EF03FFD6946FFF7AD
:10496000ABFF2A46074D084869461CF038F828680E
:10497000A04205D11EF01CFD00232B60FFF788FE2E
:1049800009B030BDE01900209985020070B58AB0E9
:104990000C4605461EF021FD02A9FFF78DFF194EBA
:1049A0006CB11948224602A91CF019F830681EF0B3
:1049B000FFFC00233360FFF76BFE0AB070BD1348A5
:1049C00002A91CF00CF83068A842F6D141F60D039C
:1049D0000F49ADF806308DF804400E4B019A0B607C
:1049E0001A600D4B4B6001230B814FF6FF73CB8197
:1049F0000C7408F0A1FA01460028DED007481BF02D
:104A0000EEFFDAE7E0190020BB850200D98502003D
:104A1000E41900201436002005470000E885020054
:104A200070B588B01646694605461C46FFF744FF38
:104A3000012E04D803492A46204604F025FB08B07D
:104A400070BD00BF0548000010B5094908220446A2
:104A500021F011FC30B107490822204621F00BFC5F
:104A600010B9012040B210BD4FF0FF30FBE700BF8E
:104A7000470E0020500E0020F0B58DB000214FF4FD
:104A800020301AF00DFD424C082120461CF0A3FEF8
:104A900040481BF0A4FFE3790493A379039363795F
:104AA000029323790193E3780093A37862782178C5
:104AB00039481BF094FF2046FFF7C6FFC4B2002020
:104AC00004F010FE064630B1014634480DB0BDE892
:104AD000F0401BF084BF324804EBC404044494F952
:104AE0000870012F0CD12F481BF079FF2E4805F0DC
:104AF00005FCFFF7CDFD002121201AF0D1FCFAE7DB
:104B0000022F3BD129482A4D1BF069FF29481BF091
:104B100066FF0FCD07AC0FC42B68236026490096B3
:104B200033463A4607A81EF097FA014610B32348C9
:104B30001BF055FF2248234C05F0E0FB224806F00D
:104B40002BF900214FF400401AF0AAFC237801331E
:104B5000DBB2A02B08BF5A232370207801F044F960
:104B600001F0E4F8013810F0FF0008BF642001F004
:104B7000E3F8E6E715481BF032FFDBE714481BF0CB
:104B80002EFF00214FF400401AF08AFCF9E700BF25
:104B90003E36002001860200178602005086020081
:104BA000470E002070860200380100208586020032
:104BB000C86902009D860200986A0200B48602005D
:104BC00078010020590E002054010020DA860200EE
:104BD000FC8602002DE9F04F87B0DFF888B0109C0A
:104BE0009DF844909DF8488006460F4610461946A9
:104BF00014254FEAE47A50EA01031CD1142D139CCA
:104C000014BF013530232C4408BF8DF81430152C07
:104C100020D0153C002C02DDB9F1000F15D11DF894
:104C2000050039460135B047152DF8D1002C13DCAD
:104C300007B0BDE8F08F22465346FBF785FD1BF811
:104C400002300DF80530013DD5E739464046B04702
:104C5000013CDFE70024E2E739464046B047013C2B
:104C6000E4E700BF418702000B6801330B60014B92
:104C70001B68184794010020014B1860704700BF63
:104C8000940100202DE9F04F002687B005468A46A2
:104C90001C4602F1FF394FF0FF3837464FF0000B4A
:104CA00007E0BBF1000F0BD1252800F0FD80514635
:104CB000A84719F8010F0028F3D107B0BDE8F08F1D
:104CC0007A280AD8622810D8302851D044D825280C
:104CD00000F0E8802D2800F0EE8051462520A847FE
:104CE00099F800005146A847D8E7A0F16303172BB5
:104CF000F3D801A252F823F09D4E0000B94D0000F8
:104D0000DB4C0000DB4C0000DB4C00009B4D000046
:104D1000B94D0000DB4C0000DB4C00009B4D000057
:104D2000DB4C0000DB4C0000DB4C0000214E00009F
:104D3000DB4C0000DB4C0000654E0000DB4C00004B
:104D4000B94D0000DB4C0000DB4C0000614D000061
:104D5000DB4C00009B4D0000392815D95828BCD1E8
:104D600099F80030702B65D154F8042B00236CE0C7
:104D7000B8F1000F0BDA002F00F09F80A0F130088F
:104D8000002F08BF022794E7B8F1000FF6DB0A23D3
:104D900003FB0808A8F13008F2E7682803D1682E61
:104DA00006D1482685E76C2802D16C2E00F087805A
:104DB000002E92D106467CE77A2E04D154F8042BBB
:104DC0004FEAE27B0BE06C2EF8D04C2EF6D1E31DBF
:104DD00023F007031C46D3F804B054F8082B7528B9
:104DE0000CD0BBF1000F09DA51462D200592A847DF
:104DF000059A52426BEB4B0B08F1FF38FB1E18BFB4
:104E00000123012F0CBF30202020CDE9020801939F
:104E10000A2300935B4651462846FFF7DBFE3DE739
:104E200051463020A84751467820A8474FF008083F
:104E3000012795E76C2E97D04C2E95D1E31D23F0DA
:104E400007031C465B6854F8082BF81E18BF0120A6
:104E5000012F0CBF30212021CDE902181021019033
:104E60000091D8E754F8043B9B465A461BF8010BC7
:104E700078B9032F25D1A2EB030BA8EB0B0BBBF1E9
:104E8000000F7FF70BAF51462020A8470BF1FF3BE7
:104E9000F5E751460593A847059BE6E754F8040B50
:104EA000514620E751461EE75E465F464FF0FF3809
:104EB0004FF0010BFDE60327FBE60127F9E64C2640
:104EC000F7E68346F5E600BF07B50B46002102462C
:104ED0000191034801A9FFF7D5FE03B05DF804FB7B
:104EE000694C000030B585B0CDE9010104460025CC
:104EF0000548039501A9FFF7C5FEDDE90230984298
:104F0000B8BF255405B030BDB90902002DE9F84FEE
:104F1000B0F8189019F00808044693460DD00129FE
:104F20000CBF49F0100949F02009A0F818908BF344
:104F30001188BFF36F8FBDE8F88F09F007090229C8
:104F400007D120461BF065FD0028F0D00128238BF7
:104F50004ED16769218B002F15DA256821F00701F2
:104F6000C4E9008841F0010121830026218B01F072
:104F7000070ACA4502D0A368002B5AD10DB9002EEA
:104F800071D0002356E001F007035A1F012A1ED8F2
:104F900021F00701062B256889B2C4E900880AD1EF
:104FA0003DB1638B2A46126801339BB2002AFAD1C5
:104FB000638341F00201218320461BF02AFD06464F
:104FC0000028D3D0238B43F020032383CDE7042B89
:104FD0000CD121F0070189B2218320461BF019FD75
:104FE00005460028C1D041F0200121830025BCE7FF
:104FF000032809D1226923F00703166843F006034A
:10500000238300252F46B1E7042806D1226923F027
:105010000703566843F00403F2E7052806D1226926
:1050200023F00703966843F00503E9E700252E46C1
:10503000E8E7012341F0080121838BF31188BFF3D6
:105040006F8FFBB985BB16B11F492046B0474FF0A3
:105050002003EFF3118B83F31188BFF36F8F238B42
:1050600023F008032383238BDA0625D523F01003CE
:1050700023830121B4F8189009F0070900297FF46F
:105080005EAF54E7A1680029DCD0D1F80090D1F8D8
:1050900004B03B4652462046D847B9F1000FD1D064
:1050A0004946D9F80090F2E729463B465246204649
:1050B0002D681BF0CAFCC5E713F020011EBF23F0CA
:1050C000200323830221D5E7770A020030B5104977
:1050D000104889B0002220F068FF0F4D0F490022D0
:1050E0000023CDE9062300240E23CDE90334CDE9C6
:1050F00001440B4B00944FF4407228461AF086FA94
:105100000849284620F058FE204609B030BD00BFAF
:1051100029510000E810002020110020903D0020BF
:10512000E95400005287020001481AF0D9B900BFC3
:10513000800F0020F0B505460F4E002003460246C2
:10514000012715F8014B0CB18B4200D3F0BD252C83
:1051500002D182F00102F4E7002AF2D014F806C06E
:105160001CF0030FEDD0732C04BF07FA03F21043B9
:1051700001330022E5E700BFA3A5020008B500F057
:1051800077FA09481BF061FF0423282207490848E1
:1051900020F0FEFB074B084A1A604FF40040BDE8C0
:1051A000084000F0B1BC00BF1C1A0020E0600020E5
:1051B000241A00209801002089100200F8B50F4B36
:1051C000BFF35B8F002553E8007F43E80052002ABD
:1051D000F9D1BFF35B8F0A4C0A4E361B3611B5422C
:1051E00000DBF8BD63685B792BB12368DB6813B122
:1051F00039462046984701351034F0E7141A00204C
:1052000090690200B0690200064BBFF35B8F53E860
:10521000002F013243E800210029F8D1BFF35B8F52
:10522000704700BF141A0020044A054B9B1AB1EBCB
:10523000D30F34BF52F831000020704728680200B5
:1052400090690200094A4368801A10B50011084CA1
:1052500019600130012218715A71237813B9054879
:105260001AF03EF90123237010BD00BF90690200BF
:1052700046360020800F002070B5154B154C1B1BC7
:10528000902B06D9144B154A154840F20B211AF001
:10529000E3FC144ABFF35B8F52E8006F711C42E8D5
:1052A00000100028F8D1BFF35B8F16B91D11AE4274
:1052B00000DB70BD237B43B123685B6903B1984772
:1052C000042200212046FFF7BDFF01361034EEE72F
:1052D000B069020090690200878702001788020007
:1052E0005A870200181A0020174B984273B50446DB
:1052F00002D3164B984221D315480022002301A95E
:1053000019F05CFC0546E0B90122019BBFF35B8FFD
:1053100053E8001F43E800200028F9D1BFF35B8F5A
:10532000019E331D1F221846214621F066F87E2279
:10533000034686F8232086F824501C46204602B0F7
:1053400070BD044BF9E700BFCC650200C8A602009F
:10535000241A0020BA87020048B1054B984205D3B1
:10536000A03398422CBF00200120704700207047D6
:10537000E06000202DE9F04F4D4B1B7885B00446CE
:1053800003B960B34FF02003EFF3118683F3118864
:10539000BFF36F8F47481BF068FE054686F3118800
:1053A000BFF36F8F78B1BFF35B8F434B53E8002F90
:1053B000013A43E800210029F8D1BFF35B8F94B193
:1053C00028461BF048FF24B93C4B1B680BB1FFF784
:1053D000F5FE38481BF047FE041E18BF0124204686
:1053E00005B0BDE8F08F364B1B78E3B92B7ADB07AD
:1053F00019D41BF043FF074628461BF00AFF01465D
:105400003846FFF797FEDFF8BC802F4BDFF8BCB0C3
:10541000A3EB0803DB0803932D4BA3EB080306461D
:105420004FEAD30A36B92B4E2B4FBF1B3F114FF01B
:1054300000083AE0B6FA86F1C1F11F09494628464C
:105440001BF0EAFE254B9842014602D3244A9042C3
:105450001AD30846FFF780FF0246A8B9214B9942AC
:1054600012D06B890399C3F389138B4238BF58F864
:1054700033204FEA8A1343F00103ADF80030494668
:105480003B4658461BF03EFE012303FA09F126EA8B
:105490000106C7E773685B7923B1336829461B6847
:1054A0003046984708F101081036B845F2DB87E727
:1054B000463600201C1A0020101A0020141A002062
:1054C000473600202868020090690200D487020055
:1054D0005869020090690200B0690200CC650200C0
:1054E000C8A60200BA87020010B5FFF7C5FE19F082
:1054F000F1FF0C4B186030B10B4B1B68092B02DD20
:105500000A4819F0EDFF094C0020FFF733FF00288F
:10551000FAD14FF0FF324FF0FF3320461AF006F871
:10552000F2E700BF401A0020101A0020800F002070
:10553000294B73B51B68418104469847274DE060AD
:10554000BFF35B8F55E8003F013345E80032002A86
:10555000F8D1BFF35B8F4FF02003EFF3118683F395
:105560001188BFF36F8F1E4821461BF072FD86F332
:105570001188BFF36F8F1B4B1B7883B14FF0200353
:10558000EFF3118483F31188BFF36F8F0020FFF7CF
:10559000F1FE84F31188BFF36F8F02B070BD124A21
:1055A0002B681268002AF8D0012B0AD100220023B0
:1055B000CDE900230D484FF4004200231AF068FAA9
:1055C000EBE70A2BE9D1094820F0FBFC084802B0C0
:1055D000BDE8704019F084BF98010020101A002027
:1055E0001C1A002047360020401A0020E810002036
:1055F000800F0020F8B50E4F3D7875B90D4C0E4E5A
:10560000FFF73AFE361B3611B54207DB0020FFF7E5
:10561000B1FE0028FAD101233B70F8BD63685B79C5
:105620001BB1236820461B69984701351034EBE70E
:105630004736002090690200B069020007B50438BF
:105640000190BFF35B8F50E8003F5A1E40E80021F5
:105650000029F8D1BFF35B8F012B03D1034801A9C7
:1056600019F0DCFA03B05DF804FB00BF241A002037
:105670002023024902481A4620F08AB9806100209E
:10568000441A002037B50023094D01930120FFF78C
:1056900071FE0446FFF7B8FD0022002301A9284649
:1056A00019F08CFA08B1002CF0D1019803B030BD8C
:1056B000441A002007B50023019307480022002365
:1056C00001A919F07BFA10B1FFF7DCFF01900198F6
:1056D00003B05DF804FB00BF441A0020F0B5037A64
:1056E00085B0DC0701901ED4457A2D091BD000241B
:1056F0002646019831461BF08FFD0746FFF72CFE2A
:1057000070B134B9019B29461869FFF713FD0446AF
:1057100048B124FA06F3D90702D53846FFF78EFFC1
:105720000136AE42E5D3019B1A7A920704D55B6934
:10573000084C0393039B2BB9064801A919F06EFA94
:1057400005B0F0BD1D6803A9204619F067FA03955E
:10575000F0E700BF441A00200EB403B503AB0146C6
:1057600053F8042B04480193FFF78CFA002002B091
:105770005DF804EB03B07047311602002DE9F047E5
:105780001D46089B1746DA0604460E4605D49906C0
:105790004CBF2B492B49FFF7DFFFDFF8AC904FF0F0
:1057A0000008A8452DDBDFF8A480DFF8A490DFF81F
:1057B00098A00025BD4232D2725D49462046FFF7CF
:1057C000CBFF0135102D23D12249DFF87C80DFF893
:1057D0008890DFF888A02046FFF7BEFF0025AF4283
:1057E00029D9725D12F8093013F0970F08BF2E22E5
:1057F00051462046FFF7B0FF0135102D14D1BDE80A
:10580000F08749462046FFF7A7FF08F10108C8E7DF
:105810006A07CFD151462046FFF79EFFCAE74146AF
:105820002046FFF799FFCCE76B07D8D141462046C9
:10583000FFF792FFD3E741462046FFF78DFFDBE7F6
:1058400021880200208802002B880200298802009B
:10585000238802002D880200A3A502002F880200E1
:105860002DE9F04F85B011F0020490469DF8387094
:1058700006461A4601F0010901F0080506D011F0AC
:10588000440F36D13249FFF767FF0446B9F1000FE4
:105890000AD0304B304953F82720304B3046002A8D
:1058A00008BF1A46FFF758FF3DB12D4B2D4953F85D
:1058B00027203046FFF750FF0546B8F1000F44D0CF
:1058C000012303FA07F7284B17F0100F274F18BFD3
:1058D0001F46BDF840109DF83C00FFF7A5FC394677
:1058E00002463046FFF738FF2844204405B0BDE8A3
:1058F000F08F1F4B196831B31E4B4FF4616C1B685E
:10590000B2FBF3F34FF47A7BB3FBF1F4B4FBFCF29C
:105910000CFB124C01FB14340BFB04F44FF03C0E57
:10592000B4FBF1FA01FB1A440BFB04F4BCFBFEF3DD
:10593000B4FBF1F1CDE901A10EFB13C100910E49B9
:10594000FFF70AFFA1E708469FE7084FC1E700BF3E
:1059500040880200A86A02003596020032880200E0
:10596000BC6A0200658802003C8802003788020099
:10597000601A0020641A00204988020038B50C46DD
:10598000E107054603D5084A0849FFF7E5FEE206A8
:1059900008D4A30628464CBF05490649BDE838404F
:1059A000FFF7DABE38BD00BF32880200359602002C
:1059B00021880200208802002DE9F0478B7A13F03D
:1059C00007088AB005460E46174622D00A7A49894A
:1059D000C3F3C203C1F38911D243CDE9008302911D
:1059E000F36802F001023946FFF73AFF8146347A44
:1059F000E44314F001040ED0294630461BF0AEFCFF
:105A0000B8F1000F2BD0424639462846FFF7B6FFC3
:105A100025E0C146EBE7B8F1000F26D12746EB6839
:105A2000069306AA3B46A96830461BF083FC069AFB
:105A30006B681A603AB1AB68134413F8014CA4F1D7
:105A40000A035C425C4128461BF0E5FD069B1F44AF
:105A5000002BE4D11CB114492846FFF77DFE2846EF
:105A60000AB0BDE8F0471BF0D6BD30461BF006FC7F
:105A70000E4902462846FFF76FFE4FF0100A05AAAE
:105A8000234606A93046CDF814A01BF053FC059A16
:105A9000002AB8D04B46009706A92846FFF76EFEAD
:105AA000059B1C44EBE700BF6B88020035960200A3
:105AB00073B542F20F738B4228BF0B4605680F4A3D
:105AC0000446052168461AF097FF63680C495B6835
:105AD00006460B2228461BF034FC636832466946B2
